{
  "contractName": "Quiz",
  "abi": [
    {
      "constant": true,
      "inputs": [
        {
          "name": "",
          "type": "address"
        }
      ],
      "name": "answers",
      "outputs": [
        {
          "name": "bet_amt",
          "type": "uint256"
        }
      ],
      "payable": false,
      "stateMutability": "view",
      "type": "function"
    },
    {
      "constant": true,
      "inputs": [
        {
          "name": "",
          "type": "address"
        }
      ],
      "name": "player_ansered",
      "outputs": [
        {
          "name": "",
          "type": "bool"
        }
      ],
      "payable": false,
      "stateMutability": "view",
      "type": "function"
    },
    {
      "inputs": [],
      "payable": true,
      "stateMutability": "payable",
      "type": "constructor"
    },
    {
      "anonymous": false,
      "inputs": [
        {
          "indexed": false,
          "name": "bettor",
          "type": "address"
        }
      ],
      "name": "logAnswer",
      "type": "event"
    },
    {
      "anonymous": false,
      "inputs": [
        {
          "indexed": false,
          "name": "sender",
          "type": "address"
        }
      ],
      "name": "logTest",
      "type": "event"
    },
    {
      "constant": false,
      "inputs": [],
      "name": "test",
      "outputs": [],
      "payable": false,
      "stateMutability": "nonpayable",
      "type": "function"
    },
    {
      "constant": false,
      "inputs": [
        {
          "name": "_option",
          "type": "bytes32[]"
        },
        {
          "name": "_bet_amt",
          "type": "uint256"
        }
      ],
      "name": "save_player_answer",
      "outputs": [],
      "payable": false,
      "stateMutability": "nonpayable",
      "type": "function"
    },
    {
      "constant": false,
      "inputs": [
        {
          "name": "_correct_option",
          "type": "bytes32[]"
        }
      ],
      "name": "set_answers",
      "outputs": [],
      "payable": false,
      "stateMutability": "nonpayable",
      "type": "function"
    },
    {
      "constant": false,
      "inputs": [
        {
          "name": "_question",
          "type": "bytes32[]"
        }
      ],
      "name": "set_questions",
      "outputs": [],
      "payable": false,
      "stateMutability": "nonpayable",
      "type": "function"
    },
    {
      "constant": false,
      "inputs": [],
      "name": "get_questions",
      "outputs": [
        {
          "name": "question",
          "type": "bytes32[]"
        }
      ],
      "payable": false,
      "stateMutability": "nonpayable",
      "type": "function"
    },
    {
      "constant": false,
      "inputs": [],
      "name": "find_winners",
      "outputs": [
        {
          "name": "winner",
          "type": "address[]"
        }
      ],
      "payable": false,
      "stateMutability": "nonpayable",
      "type": "function"
    }
  ],
  "bytecode": "0x6060604052336000806101000a81548173ffffffffffffffffffffffffffffffffffffffff021916908373ffffffffffffffffffffffffffffffffffffffff160217905550610a37806100536000396000f30060606040526004361061008e576000357c0100000000000000000000000000000000000000000000000000000000900463ffffffff16806304455c52146100935780630e392d28146100fd578063440d66b81461015757806350cbd91d146101c15780635e9618e714610224578063b19b343e14610271578063f4996e4e146102cb578063f8a8fd6d1461031c575b600080fd5b341561009e57600080fd5b6100a6610331565b6040518080602001828103825283818151815260200191508051906020019060200280838360005b838110156100e95780820151818401526020810190506100ce565b505050509050019250505060405180910390f35b341561010857600080fd5b61015560048080359060200190820180359060200190808060200260200160405190810160405280939291908181526020018383602002808284378201915050505050509190505061033f565b005b341561016257600080fd5b61016a6103a5565b6040518080602001828103825283818151815260200191508051906020019060200280838360005b838110156101ad578082015181840152602081019050610192565b505050509050019250505060405180910390f35b34156101cc57600080fd5b6102226004808035906020019082018035906020019080806020026020016040519081016040528093929190818152602001838360200280828437820191505050505050919080359060200190919050506105d8565b005b341561022f57600080fd5b61025b600480803573ffffffffffffffffffffffffffffffffffffffff16906020019091905050610831565b6040518082815260200191505060405180910390f35b341561027c57600080fd5b6102c960048080359060200190820180359060200190808060200260200160405190810160405280939291908181526020018383602002808284378201915050505050509190505061084f565b005b34156102d657600080fd5b610302600480803573ffffffffffffffffffffffffffffffffffffffff16906020019091905050610869565b604051808215151515815260200191505060405180910390f35b341561032757600080fd5b61032f610889565b005b6103396108ee565b80905090565b60008090505b81518110156103a157600180548060010182816103629190610902565b91600052602060002090016000848481518110151561037d57fe5b90602001906020020151909190915090600019169055508080600101915050610345565b5050565b6103ad61092e565b600080600091505b60038054905082101561054a57600090505b60028054905081101561053d576002818154811015156103e357fe5b906000526020600020900154600019166005600060038581548110151561040657fe5b906000526020600020900160009054906101000a900473ffffffffffffffffffffffffffffffffffffffff1673ffffffffffffffffffffffffffffffffffffffff1673ffffffffffffffffffffffffffffffffffffffff1681526020019081526020016000206000018281548110151561047c57fe5b90600052602060002090015460001916141561053057600480548060010182816104a69190610942565b916000526020600020900160006003858154811015156104c257fe5b906000526020600020900160009054906101000a900473ffffffffffffffffffffffffffffffffffffffff16909190916101000a81548173ffffffffffffffffffffffffffffffffffffffff021916908373ffffffffffffffffffffffffffffffffffffffff160217905550505b80806001019150506103c7565b81806001019250506103b5565b60048054806020026020016040519081016040528092919081815260200182805480156105cc57602002820191906000526020600020905b8160009054906101000a900473ffffffffffffffffffffffffffffffffffffffff1673ffffffffffffffffffffffffffffffffffffffff1681526020019060010190808311610582575b50505050509250505090565b6000600660003373ffffffffffffffffffffffffffffffffffffffff1673ffffffffffffffffffffffffffffffffffffffff16815260200190815260200160002060009054906101000a900460ff16151561069157600380548060010182816106419190610942565b9160005260206000209001600033909190916101000a81548173ffffffffffffffffffffffffffffffffffffffff021916908373ffffffffffffffffffffffffffffffffffffffff160217905550505b600090505b60028054905081101561072a5782818151811015156106b157fe5b90602001906020020151600560003373ffffffffffffffffffffffffffffffffffffffff1673ffffffffffffffffffffffffffffffffffffffff1681526020019081526020016000206000018281548110151561070a57fe5b906000526020600020900181600019169055508080600101915050610696565b81600560003373ffffffffffffffffffffffffffffffffffffffff1673ffffffffffffffffffffffffffffffffffffffff168152602001908152602001600020600101819055506001600660003373ffffffffffffffffffffffffffffffffffffffff1673ffffffffffffffffffffffffffffffffffffffff16815260200190815260200160002060006101000a81548160ff0219169083151502179055507fa82e58c396d7981b289086d2badee636b0fb43115e989ac5a0cc29ca077bb98a33604051808273ffffffffffffffffffffffffffffffffffffffff1673ffffffffffffffffffffffffffffffffffffffff16815260200191505060405180910390a1505050565b60056020528060005260406000206000915090508060010154905081565b806002908051906020019061086592919061096e565b5050565b60066020528060005260406000206000915054906101000a900460ff1681565b7faf86af921e9af25a296a03e26eee0602810920f041b3f5209a8b267a359e798833604051808273ffffffffffffffffffffffffffffffffffffffff1673ffffffffffffffffffffffffffffffffffffffff16815260200191505060405180910390a1565b602060405190810160405280600081525090565b8154818355818115116109295781836000526020600020918201910161092891906109c1565b5b505050565b602060405190810160405280600081525090565b8154818355818115116109695781836000526020600020918201910161096891906109e6565b5b505050565b8280548282559060005260206000209081019282156109b0579160200282015b828111156109af57825182906000191690559160200191906001019061098e565b5b5090506109bd91906109c1565b5090565b6109e391905b808211156109df5760008160009055506001016109c7565b5090565b90565b610a0891905b80821115610a045760008160009055506001016109ec565b5090565b905600a165627a7a723058201ee9b3777d8828c6804d8d3ea3e2221c40ea6670fdf99719247493b930216d630029",
  "source": "pragma solidity ^0.4.15;\r\ncontract Quiz {\r\n    \r\n\taddress owner;\r\n\r\n    function Quiz() payable\t{\r\n    \towner = msg.sender;  \r\n    }\r\n    \r\n    bytes32[] private question;\r\n    bytes32[] private correct_option; \r\n\r\n\tstruct answer{\r\n\t\tbytes32[] option;\r\n\t\tuint256   bet_amt;\r\n\t}\r\n\t\r\n\t\r\n\taddress[] playerList;\r\n\taddress[] winnerList;\r\n\r\n\tmapping(address => answer) public answers;\r\n\tmapping(address => bool)   public player_ansered ;\r\n\r\n\tevent logAnswer(address bettor);\r\n\tevent logTest(address sender);\r\n\r\n\t// ******************************\r\n\t// FUNCTIONS FOR Test\r\n\t// ******************************\r\n\r\n\tfunction test() public {\r\n\t\temit logTest(msg.sender);\r\n\t}\r\n\r\n\r\n\r\n\t\r\n\t// ******************************\r\n\t// FUNCTIONS FOR PLAYERS\r\n\t// ******************************\r\n\r\n\tfunction save_player_answer( bytes32 []_option, uint256 _bet_amt) public {\r\n\t\r\n\tif( !player_ansered [msg.sender]){\r\n\t    playerList.push(msg.sender);\r\n\t}\r\n\t\r\n\tuint i;\r\n\tfor (i=0; i< correct_option.length; i++){\r\n\tanswers[msg.sender].option[i]  = _option[i];\r\n\t}\r\n\t\r\n\tanswers[msg.sender].bet_amt = _bet_amt;\r\n    player_ansered [msg.sender] = true;\r\n    \r\n\temit logAnswer(msg.sender);\r\n\t}\r\n    \r\n\t\r\n\t// ******************************    \r\n    // FUNCTIONS FOR ADMIN\r\n\t// ******************************\r\n\t\r\n    function set_answers(bytes32[] _correct_option) public {\r\n        correct_option = _correct_option;\r\n    }\r\n    \r\n    function set_questions(bytes32[] _question) public{\r\n        for(uint i =0; i< _question.length; i++){\r\n            question.push(_question[i]);\r\n        }\r\n    }\r\n    \r\n    function get_questions() public returns (bytes32[] question) {\r\n        return question;\r\n    }\r\n    \r\n\tfunction find_winners() public returns (address[] winner){\r\n\t    uint i;\r\n\t    uint j;\r\n\t    for (i=0; i<playerList.length; i++){\r\n\t        for (j=0; j<correct_option.length; j++){\r\n    \t        if(answers[playerList[i]].option[j] == correct_option[j]){\r\n    \t            winnerList.push(playerList[i]);\r\n    \t        }\r\n\t        }     \r\n\t    }\r\n\t    return winnerList;\r\n\t}\r\n\t\r\n\r\n}",
  "sourcePath": "C:\\Users\\Lenovo\\Desktop\\CMB git\\truffle_back_end\\contracts\\Quiz.sol",
  "compiler": {
    "name": "solc",
    "version": "0.4.21+commit.dfe3193c.Emscripten.clang"
  },
  "schemaVersion": "2.0.0",
  "updatedAt": "2018-04-11T06:57:07.045Z"
}