{
  "contractName": "Quiz",
  "abi": [
    {
      "constant": true,
      "inputs": [
        {
          "name": "",
          "type": "address"
        }
      ],
      "name": "player_answered",
      "outputs": [
        {
          "name": "",
          "type": "bool"
        }
      ],
      "payable": false,
      "stateMutability": "view",
      "type": "function"
    },
    {
      "constant": true,
      "inputs": [
        {
          "name": "",
          "type": "address"
        }
      ],
      "name": "in_winnerList",
      "outputs": [
        {
          "name": "",
          "type": "bool"
        }
      ],
      "payable": false,
      "stateMutability": "view",
      "type": "function"
    },
    {
      "constant": true,
      "inputs": [
        {
          "name": "",
          "type": "address"
        }
      ],
      "name": "answers",
      "outputs": [
        {
          "name": "bet_amt",
          "type": "uint256"
        }
      ],
      "payable": false,
      "stateMutability": "view",
      "type": "function"
    },
    {
      "inputs": [],
      "payable": true,
      "stateMutability": "payable",
      "type": "constructor"
    },
    {
      "anonymous": false,
      "inputs": [
        {
          "indexed": false,
          "name": "sender",
          "type": "address"
        }
      ],
      "name": "logTest",
      "type": "event"
    },
    {
      "constant": false,
      "inputs": [
        {
          "name": "_option",
          "type": "int256[]"
        },
        {
          "name": "_bet_amt",
          "type": "uint256"
        }
      ],
      "name": "save_player_answer",
      "outputs": [
        {
          "name": "returnValue",
          "type": "int256"
        }
      ],
      "payable": false,
      "stateMutability": "nonpayable",
      "type": "function"
    },
    {
      "constant": true,
      "inputs": [],
      "name": "get_player_answer",
      "outputs": [
        {
          "name": "sender",
          "type": "address"
        },
        {
          "name": "option",
          "type": "int256[]"
        }
      ],
      "payable": false,
      "stateMutability": "view",
      "type": "function"
    },
    {
      "constant": false,
      "inputs": [
        {
          "name": "_correct_option",
          "type": "int256[]"
        }
      ],
      "name": "set_answers",
      "outputs": [],
      "payable": false,
      "stateMutability": "nonpayable",
      "type": "function"
    },
    {
      "constant": false,
      "inputs": [],
      "name": "find_winners",
      "outputs": [],
      "payable": false,
      "stateMutability": "nonpayable",
      "type": "function"
    },
    {
      "constant": true,
      "inputs": [],
      "name": "get_winners",
      "outputs": [
        {
          "name": "winners",
          "type": "address[]"
        }
      ],
      "payable": false,
      "stateMutability": "view",
      "type": "function"
    }
  ],
  "bytecode": "0x6060604052336000806101000a81548173ffffffffffffffffffffffffffffffffffffffff021916908373ffffffffffffffffffffffffffffffffffffffff160217905550610aa7806100536000396000f30060606040526004361061008e576000357c0100000000000000000000000000000000000000000000000000000000900463ffffffff1680630541b2e41461009357806325b6fe0c146100e45780632f9920d71461014e578063440d66b8146101c5578063533fad01146101da5780635e882d0c1461022b5780635e9618e71461028557806366960089146102d2575b600080fd5b341561009e57600080fd5b6100ca600480803573ffffffffffffffffffffffffffffffffffffffff1690602001909190505061036f565b604051808215151515815260200191505060405180910390f35b34156100ef57600080fd5b6100f761038f565b6040518080602001828103825283818151815260200191508051906020019060200280838360005b8381101561013a57808201518184015260208101905061011f565b505050509050019250505060405180910390f35b341561015957600080fd5b6101af600480803590602001908201803590602001908080602002602001604051908101604052809392919081815260200183836020028082843782019150505050505091908035906020019091905050610423565b6040518082815260200191505060405180910390f35b34156101d057600080fd5b6101d861062b565b005b34156101e557600080fd5b610211600480803573ffffffffffffffffffffffffffffffffffffffff1690602001909190505061086c565b604051808215151515815260200191505060405180910390f35b341561023657600080fd5b61028360048080359060200190820180359060200190808060200260200160405190810160405280939291908181526020018383602002808284378201915050505050509190505061088c565b005b341561029057600080fd5b6102bc600480803573ffffffffffffffffffffffffffffffffffffffff169060200190919050506108ec565b6040518082815260200191505060405180910390f35b34156102dd57600080fd5b6102e561090a565b604051808373ffffffffffffffffffffffffffffffffffffffff1673ffffffffffffffffffffffffffffffffffffffff16815260200180602001828103825283818151815260200191508051906020019060200280838360005b8381101561035a57808201518184015260208101905061033f565b50505050905001935050505060405180910390f35b60056020528060005260406000206000915054906101000a900460ff1681565b6103976109b1565b600380548060200260200160405190810160405280929190818152602001828054801561041957602002820191906000526020600020905b8160009054906101000a900473ffffffffffffffffffffffffffffffffffffffff1673ffffffffffffffffffffffffffffffffffffffff16815260200190600101908083116103cf575b5050505050905090565b600080600560003373ffffffffffffffffffffffffffffffffffffffff1673ffffffffffffffffffffffffffffffffffffffff16815260200190815260200160002060009054906101000a900460ff16151561061f576002805480600101828161048d91906109c5565b9160005260206000209001600033909190916101000a81548173ffffffffffffffffffffffffffffffffffffffff021916908373ffffffffffffffffffffffffffffffffffffffff16021790555050600090505b835181101561057757600460003373ffffffffffffffffffffffffffffffffffffffff1673ffffffffffffffffffffffffffffffffffffffff168152602001908152602001600020600001805480600101828161053e91906109f1565b91600052602060002090016000868481518110151561055957fe5b906020019060200201519091909150555080806001019150506104e1565b82600460003373ffffffffffffffffffffffffffffffffffffffff1673ffffffffffffffffffffffffffffffffffffffff168152602001908152602001600020600101819055506001600560003373ffffffffffffffffffffffffffffffffffffffff1673ffffffffffffffffffffffffffffffffffffffff16815260200190815260200160002060006101000a81548160ff02191690831515021790555060019150610624565b600091505b5092915050565b60008060008092505b6002805490508310156108675760009050600091505b6001805490508210156107215760018281548110151561066657fe5b9060005260206000209001546004600060028681548110151561068557fe5b906000526020600020900160009054906101000a900473ffffffffffffffffffffffffffffffffffffffff1673ffffffffffffffffffffffffffffffffffffffff1673ffffffffffffffffffffffffffffffffffffffff168152602001908152602001600020600001838154811015156106fb57fe5b9060005260206000209001541415610714576001810190505b818060010192505061064a565b60018054905081141561085a576006600060028581548110151561074157fe5b906000526020600020900160009054906101000a900473ffffffffffffffffffffffffffffffffffffffff1673ffffffffffffffffffffffffffffffffffffffff1673ffffffffffffffffffffffffffffffffffffffff16815260200190815260200160002060009054906101000a900460ff16151561085957600380548060010182816107cf91906109c5565b916000526020600020900160006002868154811015156107eb57fe5b906000526020600020900160009054906101000a900473ffffffffffffffffffffffffffffffffffffffff16909190916101000a81548173ffffffffffffffffffffffffffffffffffffffff021916908373ffffffffffffffffffffffffffffffffffffffff160217905550505b5b8280600101935050610634565b505050565b60066020528060005260406000206000915054906101000a900460ff1681565b60008090505b81518110156108e857600180548060010182816108af91906109f1565b9160005260206000209001600084848151811015156108ca57fe5b90602001906020020151909190915055508080600101915050610892565b5050565b60046020528060005260406000206000915090508060010154905081565b6000610914610a1d565b33600460003373ffffffffffffffffffffffffffffffffffffffff1673ffffffffffffffffffffffffffffffffffffffff168152602001908152602001600020600001808054806020026020016040519081016040528092919081815260200182805480156109a257602002820191906000526020600020905b81548152602001906001019080831161098e575b50505050509050915091509091565b602060405190810160405280600081525090565b8154818355818115116109ec578183600052602060002091820191016109eb9190610a31565b5b505050565b815481835581811511610a1857818360005260206000209182019101610a179190610a56565b5b505050565b602060405190810160405280600081525090565b610a5391905b80821115610a4f576000816000905550600101610a37565b5090565b90565b610a7891905b80821115610a74576000816000905550600101610a5c565b5090565b905600a165627a7a72305820639537f61eda0e3fe2cb4cb91a10b3f7ca6b19a00643863f7938015d9859b3740029",
  "source": "pragma solidity ^0.4.15;\r\ncontract Quiz {\r\n    \r\n\taddress owner;\r\n\r\n    function Quiz() public payable\t{\r\n    \towner = msg.sender;  \r\n    }\r\n    \r\n    int[] private correct_option; \r\n\r\n\tstruct answer{\r\n\t\tint[] option;\r\n\t\tuint256   bet_amt;\r\n\t}\r\n\t\r\n\t\r\n\taddress[] playerList;\r\n\taddress[] winnerList;\r\n\r\n\tmapping(address => answer) public answers;\r\n\tmapping(address => bool)   public player_answered ;\r\n\tmapping(address => bool)   public in_winnerList ;\r\n\r\n\tevent logTest(address sender);\r\n\r\n\t\r\n\t// ******************************\r\n\t// FUNCTIONS FOR PLAYERS\r\n\t// ******************************\r\n\r\n\tfunction save_player_answer( int []_option, uint256 _bet_amt) public returns (int returnValue) {\r\n\t\r\n\tif( !player_answered [msg.sender]){\r\n\t    playerList.push(msg.sender);\r\n\t    \r\n    \tfor (uint i=0; i< _option.length; i++){\r\n    \tanswers[msg.sender].option.push(_option[i]);\r\n    \t}\r\n    \t\r\n    \tanswers[msg.sender].bet_amt = _bet_amt;\r\n        player_answered [msg.sender] = true;\r\n        return 1;\r\n    \t}\r\n    return 0;\r\n\t}\r\n\t\r\n    function get_player_answer() public constant returns (address sender,int[] option){\r\n        return (msg.sender, answers[msg.sender].option);\r\n    }\r\n    \r\n\t\r\n\t// ******************************    \r\n    // FUNCTIONS FOR ADMIN\r\n\t// ******************************\r\n\t\r\n    function set_answers(int[] _correct_option) public  {\r\n        for (uint i=0; i< _correct_option.length; i++){\r\n    \tcorrect_option.push(_correct_option[i]);\r\n    \t}\r\n    }\r\n    \r\n    \r\n\tfunction find_winners() public {\r\n\t    uint i;\r\n\t    uint j;\r\n\t    uint number_of_correct_ans;\r\n\t    for (i=0; i<playerList.length; i++){\r\n\t        number_of_correct_ans = 0;\r\n\t        for (j=0; j<correct_option.length; j++){\r\n    \t        if(answers[playerList[i]].option[j] == correct_option[j]){\r\n    \t            number_of_correct_ans+=1;\r\n    \t        }\r\n    \t    }\r\n    \t    if (number_of_correct_ans == correct_option.length){\r\n    \t        if( !in_winnerList [playerList[i]]){\r\n    \t        winnerList.push(playerList[i]);\r\n    \t        }\r\n    \t    }\r\n\t    }\r\n\t}\r\n\t\r\n     function get_winners() public constant returns (address [] winners){\r\n        return (winnerList);\r\n    }\r\n\r\n}",
  "sourcePath": "C:\\Users\\Lenovo\\Desktop\\CMB git\\truffle_back_end\\contracts\\Quiz.sol",
  "compiler": {
    "name": "solc",
    "version": "0.4.21+commit.dfe3193c.Emscripten.clang"
  },
  "schemaVersion": "2.0.0",
  "updatedAt": "2018-04-17T10:30:38.296Z"
}