{
  "contractName": "Quiz",
  "abi": [
    {
      "constant": true,
      "inputs": [
        {
          "name": "",
          "type": "address"
        }
      ],
      "name": "player_answered",
      "outputs": [
        {
          "name": "",
          "type": "bool"
        }
      ],
      "payable": false,
      "stateMutability": "view",
      "type": "function"
    },
    {
      "constant": true,
      "inputs": [
        {
          "name": "",
          "type": "address"
        }
      ],
      "name": "answers",
      "outputs": [
        {
          "name": "bet_amt",
          "type": "uint256"
        }
      ],
      "payable": false,
      "stateMutability": "view",
      "type": "function"
    },
    {
      "inputs": [],
      "payable": true,
      "stateMutability": "payable",
      "type": "constructor"
    },
    {
      "anonymous": false,
      "inputs": [
        {
          "indexed": false,
          "name": "sender",
          "type": "address"
        }
      ],
      "name": "logTest",
      "type": "event"
    },
    {
      "constant": false,
      "inputs": [
        {
          "name": "_option",
          "type": "int256[]"
        },
        {
          "name": "_bet_amt",
          "type": "uint256"
        }
      ],
      "name": "save_player_answer",
      "outputs": [
        {
          "name": "returnValue",
          "type": "int256"
        }
      ],
      "payable": false,
      "stateMutability": "nonpayable",
      "type": "function"
    },
    {
      "constant": true,
      "inputs": [],
      "name": "get_player_answer",
      "outputs": [
        {
          "name": "sender",
          "type": "address"
        },
        {
          "name": "option",
          "type": "int256[]"
        }
      ],
      "payable": false,
      "stateMutability": "view",
      "type": "function"
    },
    {
      "constant": false,
      "inputs": [
        {
          "name": "_correct_option",
          "type": "int256[]"
        }
      ],
      "name": "set_answers",
      "outputs": [],
      "payable": false,
      "stateMutability": "nonpayable",
      "type": "function"
    },
    {
      "constant": false,
      "inputs": [],
      "name": "find_winners",
      "outputs": [
        {
          "name": "winner",
          "type": "address[]"
        }
      ],
      "payable": false,
      "stateMutability": "nonpayable",
      "type": "function"
    }
  ],
  "bytecode": "0x6060604052336000806101000a81548173ffffffffffffffffffffffffffffffffffffffff021916908373ffffffffffffffffffffffffffffffffffffffff160217905550610961806100536000396000f300606060405260043610610078576000357c0100000000000000000000000000000000000000000000000000000000900463ffffffff1680630541b2e41461007d5780632f9920d7146100ce578063440d66b8146101455780635e882d0c146101af5780635e9618e7146102095780636696008914610256575b600080fd5b341561008857600080fd5b6100b4600480803573ffffffffffffffffffffffffffffffffffffffff169060200190919050506102f3565b604051808215151515815260200191505060405180910390f35b34156100d957600080fd5b61012f600480803590602001908201803590602001908080602002602001604051908101604052809392919081815260200183836020028082843782019150505050505091908035906020019091905050610313565b6040518082815260200191505060405180910390f35b341561015057600080fd5b61015861051b565b6040518080602001828103825283818151815260200191508051906020019060200280838360005b8381101561019b578082015181840152602081019050610180565b505050509050019250505060405180910390f35b34156101ba57600080fd5b610207600480803590602001908201803590602001908080602002602001604051908101604052809392919081815260200183836020028082843782019150505050505091905050610746565b005b341561021457600080fd5b610240600480803573ffffffffffffffffffffffffffffffffffffffff169060200190919050506107a6565b6040518082815260200191505060405180910390f35b341561026157600080fd5b6102696107c4565b604051808373ffffffffffffffffffffffffffffffffffffffff1673ffffffffffffffffffffffffffffffffffffffff16815260200180602001828103825283818151815260200191508051906020019060200280838360005b838110156102de5780820151818401526020810190506102c3565b50505050905001935050505060405180910390f35b60056020528060005260406000206000915054906101000a900460ff1681565b600080600560003373ffffffffffffffffffffffffffffffffffffffff1673ffffffffffffffffffffffffffffffffffffffff16815260200190815260200160002060009054906101000a900460ff16151561050f576002805480600101828161037d919061086b565b9160005260206000209001600033909190916101000a81548173ffffffffffffffffffffffffffffffffffffffff021916908373ffffffffffffffffffffffffffffffffffffffff16021790555050600090505b835181101561046757600460003373ffffffffffffffffffffffffffffffffffffffff1673ffffffffffffffffffffffffffffffffffffffff168152602001908152602001600020600001805480600101828161042e9190610897565b91600052602060002090016000868481518110151561044957fe5b906020019060200201519091909150555080806001019150506103d1565b82600460003373ffffffffffffffffffffffffffffffffffffffff1673ffffffffffffffffffffffffffffffffffffffff168152602001908152602001600020600101819055506001600560003373ffffffffffffffffffffffffffffffffffffffff1673ffffffffffffffffffffffffffffffffffffffff16815260200190815260200160002060006101000a81548160ff02191690831515021790555060019150610514565b600091505b5092915050565b6105236108c3565b600080600091505b6002805490508210156106b857600090505b6001805490508110156106ab5760018181548110151561055957fe5b9060005260206000209001546004600060028581548110151561057857fe5b906000526020600020900160009054906101000a900473ffffffffffffffffffffffffffffffffffffffff1673ffffffffffffffffffffffffffffffffffffffff1673ffffffffffffffffffffffffffffffffffffffff168152602001908152602001600020600001828154811015156105ee57fe5b906000526020600020900154141561069e5760038054806001018281610614919061086b565b9160005260206000209001600060028581548110151561063057fe5b906000526020600020900160009054906101000a900473ffffffffffffffffffffffffffffffffffffffff16909190916101000a81548173ffffffffffffffffffffffffffffffffffffffff021916908373ffffffffffffffffffffffffffffffffffffffff160217905550505b808060010191505061053d565b818060010192505061052b565b600380548060200260200160405190810160405280929190818152602001828054801561073a57602002820191906000526020600020905b8160009054906101000a900473ffffffffffffffffffffffffffffffffffffffff1673ffffffffffffffffffffffffffffffffffffffff16815260200190600101908083116106f0575b50505050509250505090565b60008090505b81518110156107a257600180548060010182816107699190610897565b91600052602060002090016000848481518110151561078457fe5b9060200190602002015190919091505550808060010191505061074c565b5050565b60046020528060005260406000206000915090508060010154905081565b60006107ce6108d7565b33600460003373ffffffffffffffffffffffffffffffffffffffff1673ffffffffffffffffffffffffffffffffffffffff1681526020019081526020016000206000018080548060200260200160405190810160405280929190818152602001828054801561085c57602002820191906000526020600020905b815481526020019060010190808311610848575b50505050509050915091509091565b8154818355818115116108925781836000526020600020918201910161089191906108eb565b5b505050565b8154818355818115116108be578183600052602060002091820191016108bd9190610910565b5b505050565b602060405190810160405280600081525090565b602060405190810160405280600081525090565b61090d91905b808211156109095760008160009055506001016108f1565b5090565b90565b61093291905b8082111561092e576000816000905550600101610916565b5090565b905600a165627a7a7230582099318ecbbfe6115a9fc0a032a8f897b7a44b8077c50c38a455feec106419a13d0029",
  "source": "pragma solidity ^0.4.15;\r\ncontract Quiz {\r\n    \r\n\taddress owner;\r\n\r\n    function Quiz() public payable\t{\r\n    \towner = msg.sender;  \r\n    }\r\n    \r\n    int[] private correct_option; \r\n\r\n\tstruct answer{\r\n\t\tint[] option;\r\n\t\tuint256   bet_amt;\r\n\t}\r\n\t\r\n\t\r\n\taddress[] playerList;\r\n\taddress[] winnerList;\r\n\r\n\tmapping(address => answer) public answers;\r\n\tmapping(address => bool)   public player_answered ;\r\n\r\n\tevent logTest(address sender);\r\n\r\n\t\r\n\t// ******************************\r\n\t// FUNCTIONS FOR PLAYERS\r\n\t// ******************************\r\n\r\n\tfunction save_player_answer( int []_option, uint256 _bet_amt) public returns (int returnValue) {\r\n\t\r\n\tif( !player_answered [msg.sender]){\r\n\t    playerList.push(msg.sender);\r\n\t    \r\n    \tfor (uint i=0; i< _option.length; i++){\r\n    \tanswers[msg.sender].option.push(_option[i]);\r\n    \t}\r\n    \t\r\n    \tanswers[msg.sender].bet_amt = _bet_amt;\r\n        player_answered [msg.sender] = true;\r\n        return 1;\r\n    \t}\r\n    return 0;\r\n\t}\r\n\t\r\n    function get_player_answer() public constant returns (address sender,int[] option){\r\n        return (msg.sender, answers[msg.sender].option);\r\n    }\r\n    \r\n\t\r\n\t// ******************************    \r\n    // FUNCTIONS FOR ADMIN\r\n\t// ******************************\r\n\t\r\n    function set_answers(int[] _correct_option) public  {\r\n        for (uint i=0; i< _correct_option.length; i++){\r\n    \tcorrect_option.push(_correct_option[i]);\r\n    \t}\r\n    }\r\n    \r\n    \r\n\tfunction find_winners() public returns (address[] winner){\r\n\t    uint i;\r\n\t    uint j;\r\n\t    for (i=0; i<playerList.length; i++){\r\n\t        for (j=0; j<correct_option.length; j++){\r\n    \t        if(answers[playerList[i]].option[j] == correct_option[j]){\r\n    \t            winnerList.push(playerList[i]);\r\n    \t        }\r\n\t        }     \r\n\t    }\r\n\t    return winnerList;\r\n\t}\r\n\t\r\n\r\n}",
  "sourcePath": "C:\\Users\\Lenovo\\Desktop\\CMB git\\truffle_back_end\\contracts\\Quiz.sol",
  "compiler": {
    "name": "solc",
    "version": "0.4.21+commit.dfe3193c.Emscripten.clang"
  },
  "schemaVersion": "2.0.0",
  "updatedAt": "2018-04-16T12:27:30.546Z"
}